:100000000C9434000C943E010C9451000C9451005B
:100010000C9451000C9451000C9451000C9451001C
:100020000C9451000C9451000C9451000C9451000C
:100030000C9451000C9451000C9451000C945100FC
:100040000C9451000C9451000C9451000C945100EC
:100050000C9451000C9451000C9451000C945100DC
:100060000C9451000C94510011241FBECFEFD8E026
:10007000DEBFCDBF11E0A0E0B1E0ECE5F6E002C0EC
:1000800005900D92A230B107D9F721E0A2E0B1E0CE
:1000900001C01D92A830B207E1F70E9411020C9432
:1000A0002C030C9400000E9497012FE987EF93E046
:1000B000215080409040E1F700C00000409A089530
:1000C000239A259A2B9A2D9A399A3A9A439A459AC5
:1000D00008952B9A08952B98089541980895419A70
:1000E00008952D9A08952D980895429A089542985A
:1000F00008955E9808955E9A0895EF92FF920F9387
:100100001F93CF93DF938C01CFE0D0E0EE24E394F4
:10011000F12CC7010C2E02C0880F991F0A94E2F738
:1001200080239123892BA1F00E9469000E94710015
:100130000E9473000E946B00219759F70E9475007E
:10014000DF91CF911F910F91FF90EF900C9477006A
:100150000E946B00EBCF4F925F926F927F92AF92B3
:10016000BF92CF92DF92EF92FF920F931F93CF93A4
:10017000DF932B013C016A01F12CE12C88EEA82EC3
:1001800083E0B82EEC14FD046CF520E030E04AE783
:1001900054E4C301B2010E9497020E943802EB01AD
:1001A00010E000E008C00E946D0044E04A95F1F7BD
:1001B00000000F5F1F4F0C171D07ACF30E946F006C
:1001C00090E080E095012C1B3D0B8217930724F0F3
:1001D0008FEFE81AF80AD6CF44E04A95F1F700000D
:1001E0000196F3CFDF91CF911F910F91FF90EF9088
:1001F000DF90CF90BF90AF907F906F905F904F90C7
:100200000895CF92DF92EF92FF920F931F93CF93B7
:10021000DF938C016A017B01E9010E946F00C80134
:100220000E947D00AE01C701B601DF91CF911F9101
:100230000F91FF90EF90DF90CF900C94AB0052980D
:100240005A9AE89AE9E6F0E0808183608083089515
:1002500010928000E1E8F0E08081886080838081F6
:100260008460808384E294EF909389008093880077
:10027000EFE6F0E080818260808308951F920F9204
:100280000FB60F9211242F933F934F935F936F9369
:100290007F938F939F93AF93BF93EF93FF9380913F
:1002A000840090918500909305018093040124E6D9
:1002B00030E04AE057ED63EA7BE385E595E50E948F
:1002C0000101809100018823D9F0109200018091F2
:1002D0000401909105019093070180930601FF911D
:1002E000EF91BF91AF919F918F917F916F915F91AE
:1002F0004F913F912F910F900FBE0F901F90189527
:10030000209104013091050180910601909107012F
:10031000809104019091050120910601309107011F
:10032000821B930B9093030180930201D0CFAF9275
:10033000BF92CF92DF92EF92FF920F931F93CF93D2
:10034000DF939B01AC0185ECA82EB12CF501108246
:1003500094ECC92ED12CF601108261ECE62EF12C22
:10036000F701108200EC10E0F8011082C2ECD0E03E
:10037000188260E874E88EE190E00E941602215035
:100380003109F5013083F601208388E1F70180838C
:10039000F80180818B7F8083808182608083888167
:1003A000877F8883888186608883DF91CF911F91C2
:1003B0000F91FF90EF90DF90CF90BF90AF90089596
:1003C0009091C00095FFFCCF8093C6000895CF9315
:1003D000DF93EC018991811103C0DF91CF910895E2
:1003E0000E94E001F7CF8091C00087FFFCCF809191
:1003F000C60008950F931F93CF93DF93EB018C01F9
:10040000060F171F21971C161D062CF0DF91CF91A8
:100410001F910F9108950E94F301F80182938F01BB
:10042000F1CF0E941F010E942801FFCFA1E21A2EE6
:10043000AA1BBB1BFD010DC0AA1FBB1FEE1FFF1F88
:10044000A217B307E407F50720F0A21BB30BE40BD8
:10045000F50B661F771F881F991F1A9469F760951F
:100460007095809590959B01AC01BD01CF010895D9
:100470000E943F026894B1110C94910208950E9469
:10048000760288F09F5798F0B92F9927B751B0F0AE
:10049000E1F0660F771F881F991F1AF0BA95C9F708
:1004A00014C0B13091F00E949002B1E008950C9414
:1004B0009002672F782F8827B85F39F0B93FCCF3C7
:1004C000869577956795B395D9F73EF49095809585
:1004D000709561957F4F8F4F9F4F089557FD9058AE
:1004E000440F551F59F05F3F71F04795880F97FBF8
:1004F000991F61F09F3F79F08795089512161306B2
:100500001406551FF2CF4695F1DF08C016161706E0
:100510001806991FF1CF8695710561050894089515
:10052000E894BB2766277727CB0197F908950E94A7
:10053000AA020C941B030E940D0338F00E941403BE
:1005400020F0952311F00C9404030C940A03112459
:100550000C9491020E946E0270F3959FC1F3950F67
:1005600050E0551F629FF001729FBB27F00DB11D37
:10057000639FAA27F00DB11DAA1F649F6627B00DC7
:10058000A11D661F829F2227B00DA11D621F739FB0
:10059000B00DA11D621F839FA00D611D221F749FBE
:1005A0003327A00D611D231F849F600D211D822F05
:1005B000762F6A2F11249F5750409AF0F1F088232C
:1005C0004AF0EE0FFF1FBB1F661F771F881F915059
:1005D0005040A9F79E3F510580F00C9404030C9401
:1005E00091025F3FE4F3983ED4F386957795679543
:1005F000B795F795E7959F5FC1F7FE2B880F911D83
:100600009695879597F9089597F99F6780E870E028
:1006100060E008959FEF80EC089500240A94161678
:10062000170618060906089500240A9412161306E0
:10063000140605060895092E0394000C11F488236E
:1006400052F0BB0F40F4BF2B11F460FF04C06F5F8A
:0C0650007F4F8F4F9F4F0895F894FFCF0D
:02065C0001009B
:00000001FF
