:100000000C9434000C9472000C9451000C94510028
:100010000C9451000C9451000C9451000C9451001C
:100020000C9451000C9451000C9451000C9451000C
:100030000C9451000C9451000C9451000C945100FC
:100040000C9451000C9451000C9451000C945100EC
:100050000C9451000C9451000C9451000C945100DC
:100060000C9451000C94510011241FBECFEFD8E026
:10007000DEBFCDBF11E0A0E0B1E0E0E7F1E002C0FB
:1000800005900D92A230B107D9F721E0A2E0B1E0CE
:1000900001C01D92A830B207E1F70E94B1000C9494
:1000A000B6000C94000052985A9AE89AE9E6F0E0FB
:1000B000808183608083089510928000E1E8F0E001
:1000C00080818860808380818460808384E294EF73
:1000D0009093890080938800EFE6F0E08081826051
:1000E000808308951F920F920FB60F9211242F93C1
:1000F0003F938F939F93809184009091850090937C
:1001000005018093040180910001882399F01092E9
:100110000001809104019091050190930701809363
:1001200006019F918F913F912F910F900FBE0F90DD
:100130001F901895209104013091050180910601CE
:100140009091070180910401909105012091060191
:1001500030910701821B930B90930301809302015E
:10016000D8CF0E9453000E945C00FFCFF894FFCFCD
:0201700001008C
:00000001FF
