:100000000C9434000C9449000C9449000C94490061
:100010000C9449000C9449000C9449000C9449003C
:100020000C9449000C9449000C9449000C9449002C
:100030000C9449000C9449000C9449000C9449001C
:100040000C9449000C9449000C9449000C9449000C
:100050000C9449000C9449000C9449000C944900FC
:100060000C9449000C94490011241FBECFEFD8E036
:10007000DEBFCDBF11E0A0E0B1E0E0E2F1E002C000
:1000800005900D92A430B107D9F70E946D000C9431
:100090008E000C94000084B1886284B987B18660B8
:1000A00087B9089541980895419A089580E190E0B4
:1000B0002398259A259823980197D1F7429A429838
:1000C0000895CF93DF93EC010E945400CE010E946B
:1000D0005600DF91CF910C9452000E944B0080910A
:1000E0000201909103010E9461002FE38CEA97E2E4
:1000F000215080409040E1F700C000008091000155
:10010000909101010E9461002FE38CEA97E2215057
:1001100080409040E1F700C00000E1CFF894FFCFAD
:040120005555AAAADD
:00000001FF
