:100000000C9434000C9449000C9449000C94490061
:100010000C9449000C9449000C9449000C9449003C
:100020000C9449000C9449000C9449000C9449002C
:100030000C9449000C9449000C9449000C9449001C
:100040000C9449000C9449000C9449000C9449000C
:100050000C9449000C9449000C9449000C944900FC
:100060000C9449000C94490011241FBECFEFD8E036
:10007000DEBFCDBF11E0A0E0B1E0E6E3F4E002C0F6
:1000800005900D92A430B107D9F70E940A010C9493
:1000900019020C940000239A259A2B9A2D9A399ACA
:1000A0003A9A439A459A08952B9A08952B98089561
:1000B00041980895419A08952D9A08952D9808958C
:1000C000429A0895429808955E9808955E9A089518
:1000D000EF92FF920F931F93CF93DF938C01CFE0AA
:1000E000D0E0EE24E394F12CC7010C2E02C0880F5F
:1000F000991F0A94E2F780239123892BA1F00E9493
:1001000054000E945C000E945E000E9456002197ED
:1001100059F70E946000DF91CF911F910F91FF90DE
:10012000EF900C9462000E945600EBCF4F925F92CA
:100130006F927F92AF92BF92CF92DF92EF92FF9237
:100140000F931F93CF93DF932B013C016A01F12C96
:10015000E12C88EEA82E83E0B82EEC14FD046CF59B
:1001600020E030E04AE754E4C301B2010E94840178
:100170000E942501EB0110E000E008C00E94580039
:1001800044E04A95F1F700000F5F1F4F0C171D0761
:10019000ACF30E945A0090E080E095012C1B3D0BCF
:1001A0008217930724F08FEFE81AF80AD6CF44E0BD
:1001B0004A95F1F700000196F3CFDF91CF911F919F
:1001C0000F91FF90EF90DF90CF90BF90AF907F9016
:1001D0006F905F904F900895CF92DF92EF92FF92D1
:1001E0000F931F93CF93DF938C016A017B01E90189
:1001F0000E945A00C8010E946800AE01C701B60102
:10020000DF91CF911F910F91FF90EF90DF90CF90F2
:100210000C9496000E944B0028EE33E04AE057ED24
:1002200063EA7BE380910201909103010E94EC005C
:1002300028EE33E04AE057ED63E27CE38091000171
:10024000909101010E94EC00E7CF0E942C0168947C
:10025000B1110C947E0108950E94630188F09F57AC
:1002600098F0B92F9927B751B0F0E1F0660F771FDA
:10027000881F991F1AF0BA95C9F714C0B13091F0D0
:100280000E947D01B1E008950C947D01672F782FC5
:100290008827B85F39F0B93FCCF386957795679595
:1002A000B395D9F73EF490958095709561957F4F01
:1002B0008F4F9F4F089557FD9058440F551F59F089
:1002C0005F3F71F04795880F97FB991F61F09F3F43
:1002D00079F087950895121613061406551FF2CF6C
:1002E0004695F1DF08C0161617061806991FF1CFBC
:1002F00086957105610508940895E894BB276627E3
:100300007727CB0197F908950E9497010C94080272
:100310000E94FA0138F00E94010220F0952311F0AA
:100320000C94F1010C94F70111240C947E010E94AD
:100330005B0170F3959FC1F3950F50E0551F629FCD
:10034000F001729FBB27F00DB11D639FAA27F00D2E
:10035000B11DAA1F649F6627B00DA11D661F829F55
:100360002227B00DA11D621F739FB00DA11D621F3A
:10037000839FA00D611D221F749F3327A00D611D57
:10038000231F849F600D211D822F762F6A2F112439
:100390009F5750409AF0F1F088234AF0EE0FFF1F6C
:1003A000BB1F661F771F881F91505040A9F79E3FC3
:1003B000510580F00C94F1010C947E015F3FE4F351
:1003C000983ED4F3869577956795B795F795E79519
:1003D0009F5FC1F7FE2B880F911D9695879597F922
:1003E000089597F99F6780E870E060E008959FEFB7
:1003F00080EC089500240A941616170618060906BC
:10040000089500240A94121613061406050608958A
:10041000092E0394000C11F4882352F0BB0F40F412
:10042000BF2B11F460FF04C06F5F7F4F8F4F9F4F52
:060430000895F894FFCFCF
:040436005555AAAAC4
:00000001FF
