:100000000C9434000C9449000C9449000C94490061
:100010000C9449000C9449000C9449000C9449003C
:100020000C9449000C9449000C9449000C9449002C
:100030000C9449000C9449000C9449000C9449001C
:100040000C9449000C9449000C9449000C9449000C
:100050000C9449000C9449000C9449000C944900FC
:100060000C9449000C94490011241FBECFEFD8E036
:10007000DEBFCDBF11E0A0E0B1E0E4E3F1E002C0FB
:1000800005900D92A430B107D9F70E9477000C9427
:1000900098000C94000084B1886284B987B18660AE
:1000A00087B981E58CBD08958EBD0DB407FEFDCFE7
:1000B0000895CF93C82F892F0E9454008C2FCF9181
:1000C0000C9454000E945900429A42980895419815
:1000D0000895419A0895CF93DF93EC010E9469003F
:1000E000CE010E946200DF91CF910C9467000E94C4
:1000F0004B0080910201909103010E946B002FE35D
:100100008CEA97E2215080409040E1F700C0000067
:1001100080910001909101010E946B002FE38CEA15
:1001200097E2215080409040E1F700C00000E1CF0D
:04013000F894FFCF71
:040134005555AAAAC9
:00000001FF
